:020000040800F2
:1000000000000220D5270108FD260108FF2601086F
:100010000127010803270108052701080000000047
:100020000000000000000000000000000727010899
:1000300009270108000000000B2701080D2701080F
:100040002528010825280108252801082528010858
:100050002528010825280108252801082528010848
:100060002528010825280108252801082528010838
:100070002528010825280108252801082528010828
:100080002528010825280108252801082528010818
:100090002528010825280108252801082528010808
:1000A00025280108252801082528010825280108F8
:1000B00025280108252801082528010825280108E8
:1000C00025280108252801082528010825280108D8
:1000D00025280108252801082528010825280108C8
:1000E00025280108252801082528010825280108B8
:1000F00025280108252801082528010825280108A8
:100100002528010825280108252801082528010897
:100110002528010825280108252801082528010887
:100120002528010825280108252801082528010877
:100130002528010825280108252801082528010867
:100140002528010825280108252801082528010857
:100150002528010825280108252801082528010847
:100160002528010825280108252801082528010837
:10017000252801082528010825280108000000007D
:080180002528010825280108CB
:1001C0000348044B834202D0034B03B118477047E6
:1001D000B4070020B4070020000000000548064BCB
:1001E0001B1AD90F01EBA301491002D0034B03B135
:1001F00018477047B4070020B40700200000000033
:1002000010B5064C237843B9FFF7DAFF044B13B15E
:100210000448AFF300800123237010BDB80700200D
:1002200000000000AC1E040808B5044B1BB10449D3
:100230000448AFF30080BDE80840CFE700000000AD
:10024000BC070020AC1E040881F0004102E000BFA2
:1002500083F0004330B54FEA41044FEA430594EA86
:10026000050F08BF90EA020F1FBF54EA000C55EAC1
:10027000020C7FEA645C7FEA655C00F0E2804FEA92
:100280005454D4EB5555B8BF6D420CDD2C4480EA74
:10029000020281EA030382EA000083EA010180EAA4
:1002A000020281EA0303362D88BF30BD11F0004FF2
:1002B0004FEA01314FF4801C4CEA113102D0404228
:1002C00061EB410113F0004F4FEA03334CEA133363
:1002D00002D0524263EB430394EA050F00F0A7807B
:1002E000A4F10104D5F1200E0DDB02FA0EFC22FA76
:1002F00005F2801841F1000103FA0EF2801843FA6A
:1003000005F359410EE0A5F120050EF1200E012A5A
:1003100003FA0EFC28BF4CF0020C43FA05F3C01898
:1003200051EBE37101F0004507D54FF0000EDCF111
:10033000000C7EEB00006EEB0101B1F5801F1BD3BA
:10034000B1F5001F0CD349085FEA30004FEA3C0CBE
:1003500004F101044FEA445212F5800F80F09A80B4
:10036000BCF1004F08BF5FEA500C50F1000041EBB8
:10037000045141EA050130BD5FEA4C0C404141EBBC
:100380000101013C28BFB1F5801FE9D291F0000FB7
:1003900004BF01460020B1FA81F308BF2033A3F166
:1003A0000B03B3F120020CDA0C3208DD02F1140C5D
:1003B000C2F10C0201FA0CF021FA02F10CE002F198
:1003C0001402D8BFC2F1200C01FA02F120FA0CFC91
:1003D000DCBF41EA0C019040E41AA2BF01EB0451DA
:1003E000294330BD6FEA04041F3C1CDA0C340EDCD8
:1003F00004F11404C4F1200220FA04F001FA02F31B
:1004000040EA030021FA04F345EA030130BDC4F1D8
:100410000C04C4F1200220FA02F001FA04F340EACD
:100420000300294630BD21FA04F0294630BD94F07E
:10043000000F83F4801306BF81F480110134013D65
:100440004EE77FEA645C18BF7FEA655C29D094EAD6
:10045000050F08BF90EA020F05D054EA000C04BF54
:100460001946104630BD91EA030F1EBF002100203F
:1004700030BD5FEA545C05D14000494128BF41F0DE
:10048000004130BD14F580043CBF01F5801130BD42
:1004900001F0004545F0FE4141F470014FF00000CD
:1004A00030BD7FEA645C1ABF194610467FEA655C7E
:1004B0001CBF0B46024650EA013406BF52EA033520
:1004C00091EA030F41F4002130BD00BF90F0000F0E
:1004D00004BF0021704730B54FF4806404F132044A
:1004E0004FF000054FF0000150E700BF90F0000F03
:1004F00004BF0021704730B54FF4806404F132042A
:1005000010F0004548BF40424FF000013EE700BFF9
:1005100042004FEAE2014FEA31014FEA02701FBF89
:1005200012F07F4393F07F4F81F06051704732F0BB
:100530007F4208BF704793F07F4F04BF41F4002112
:10054000704730B54FF4607401F0004521F0004170
:100550001CE700BF50EA010208BF704730B54FF0FA
:1005600000050AE050EA010208BF704730B511F0FB
:10057000004502D5404261EB41014FF4806404F133
:1005800032045FEA915C3FF4D8AE4FF003025FEAB9
:10059000DC0C18BF03325FEADC0C18BF033202EB3D
:1005A000DC02C2F1200300FA03FC20FA02F001FA97
:1005B00003FE40EA0E0021FA02F11444BDE600BF3A
:1005C0004FF0FF3C06E000BF4FF0010C02E000BF1F
:1005D0004FF0010C4DF804CD4FEA410C7FEA6C5C02
:1005E0004FEA430C18BF7FEA6C5C1BD001B050EAA5
:1005F000410C0CBF52EA430C91EA030F02BF90EA90
:10060000020F0020704710F1000F91EA030F58BF4E
:10061000994208BF90422CBFD8176FEAE37040F0B0
:10062000010070474FEA410C7FEA6C5C02D150EA4E
:10063000013C07D14FEA430C7FEA6C5CD6D152EA09
:10064000033CD3D05DF8040B704700BF84461046CE
:1006500062468C461946634600E000BF01B5FFF7CD
:10066000B7FF002848BF10F1000F01BD4DF808ED9D
:10067000FFF7F4FF0CBF012000205DF808FB00BF6E
:100680004DF808EDFFF7EAFF34BF012000205DF8C8
:1006900008FB00BF4DF808EDFFF7E0FF94BF012015
:1006A00000205DF808FB00BF4DF808EDFFF7CEFF16
:1006B00094BF012000205DF808FB00BF4DF808ED55
:1006C000FFF7C4FF34BF012000205DF808FB00BF26
:1006D00080F0004002E000BF81F0004142001FBFF7
:1006E0005FEA410392EA030F7FEA226C7FEA236C00
:1006F0006AD04FEA1262D2EB1363C1BFD2184140F5
:1007000048404140B8BF5B42192B88BF704710F08A
:10071000004F40F4000020F07F4018BF404211F02D
:10072000004F41F4000121F07F4118BF494292EA95
:10073000030F3FD0A2F1010241FA03FC10EB0C00C1
:10074000C3F1200301FA03F100F0004302D549424E
:1007500060EB4000B0F5000F13D3B0F1807F06D3FB
:1007600040084FEA310102F10102FE2A51D2B1F1F3
:10077000004F40EBC25008BF20F0010040EA0300E8
:100780007047490040EB0000013A28BFB0F5000F68
:10079000EDD2B0FA80FCACF1080CB2EB0C0200FA1E
:1007A0000CF0AABF00EBC25052421843BCBFD0406D
:1007B0001843704792F0000F81F4000106BF80F4E7
:1007C00000000132013BB5E74FEA41037FEA226CAA
:1007D00018BF7FEA236C21D092EA030F04D092F075
:1007E000000F08BF0846704790EA010F1CBF0020A9
:1007F000704712F07F4F04D1400028BF40F0004006
:10080000704712F100723CBF00F50000704700F025
:10081000004343F0FE4040F4000070477FEA22624C
:1008200016BF08467FEA23630146420206BF5FEA1D
:10083000412390EA010F40F4800070474FF000031D
:1008400004E000BF10F0004348BF40425FEA000CE4
:1008500008BF704743F0964301464FF000001CE08C
:1008600050EA010208BF70474FF000030AE000BFE2
:1008700050EA010208BF704711F0004302D5404220
:1008800061EB41015FEA010C02BF84460146002092
:1008900043F0B64308BFA3F18053A3F50003BCFAAD
:1008A0008CF2083AA3EBC25310DB01FA02FC63445A
:1008B00000FA02FCC2F12002BCF1004F20FA02F261
:1008C00043EB020008BF20F00100704702F1200254
:1008D00001FA02FCC2F1200250EA4C0021FA02F2B5
:1008E00043EB020008BF20EADC7070474FF0FF0CBA
:1008F0001CEAD0521EBF1CEAD15392EA0C0F93EAB5
:100900000C0F6FD01A4480EA010C400218BF5FEA56
:1009100041211ED04FF0006343EA501043EA5111C9
:10092000A0FB01310CF00040B1F5000F3EBF4900C3
:1009300041EAD3715B0040EA010062F17F02FD2AC7
:100940001DD8B3F1004F40EBC25008BF20F00100AA
:10095000704790F0000F0CF0004C08BF49024CEAC1
:10096000502040EA51207F3AC2BFD2F1FF0340EA53
:10097000C250704740F400004FF00003013A5DDCC4
:1009800012F1190FDCBF00F000407047C2F1000205
:10099000410021FA02F1C2F1200200FA02FC5FEAF2
:1009A000310040F1000053EA4C0308BF20EADC703C
:1009B000704792F0000F00F0004C02BF400010F4AE
:1009C000000F013AF9D040EA0C0093F0000F01F05B
:1009D000004C02BF490011F4000F013BF9D041EA7D
:1009E0000C018FE70CEAD15392EA0C0F18BF93EA7F
:1009F0000C0F0AD030F0004C18BF31F0004CD8D1A9
:100A000080EA010000F00040704790F0000F17BF2F
:100A100090F0004F084691F0000F91F0004F14D075
:100A200092EA0C0F01D142020FD193EA0C0F03D1CD
:100A30004B0218BF084608D180EA010000F00040D0
:100A400040F0FE4040F40000704740F0FE4040F4AB
:100A5000400070474FF0FF0C1CEAD0521EBF1CEA4A
:100A6000D15392EA0C0F93EA0C0F69D0A2EB030268
:100A700080EA010C49024FEA402037D04FF0805302
:100A800043EA111143EA10130CF000408B4238BFC7
:100A90005B0042F17D024FF4000C8B4224BF5B1AD5
:100AA00040EA0C00B3EB510F24BFA3EB510340EA23
:100AB0005C00B3EB910F24BFA3EB910340EA9C00D1
:100AC000B3EBD10F24BFA3EBD10340EADC001B0141
:100AD00018BF5FEA1C1CE0D1FD2A3FF650AF8B42E5
:100AE00040EBC25008BF20F0010070470CF0004CF2
:100AF0004CEA50207F32C2BFD2F1FF0340EAC2501D
:100B0000704740F400004FF00003013A37E792F0DD
:100B1000000F00F0004C02BF400010F4000F013A3B
:100B2000F9D040EA0C0093F0000F01F0004C02BF36
:100B3000490011F4000F013BF9D041EA0C0195E79F
:100B40000CEAD15392EA0C0F08D142027FF47DAF38
:100B500093EA0C0F7FF470AF084676E793EA0C0F28
:100B600004D14B023FF44CAF08466EE730F0004C26
:100B700018BF31F0004CCAD130F000427FF45CAFB6
:100B800031F000437FF43CAF5FE700BF4FF0FF3C24
:100B900006E000BF4FF0010C02E000BF4FF0010C77
:100BA0004DF804CD4FEA40024FEA41037FEA226C40
:100BB00018BF7FEA236C11D001B052EA530C18BF62
:100BC00090EA010F58BFB2EB030088BFC81738BFC7
:100BD0006FEAE17018BF40F0010070477FEA226CB5
:100BE00002D15FEA402C05D17FEA236CE4D15FEAB1
:100BF000412CE1D05DF8040B704700BF84460846E5
:100C00006146FFE70FB5FFF7C9FF002848BF10F1A5
:100C1000000F0FBD4DF808EDFFF7F4FF0CBF0120EA
:100C200000205DF808FB00BF4DF808EDFFF7EAFF74
:100C300034BF012000205DF808FB00BF4DF808ED2F
:100C4000FFF7E0FF94BF012000205DF808FB00BF24
:100C50004DF808EDFFF7D2FF94BF012000205DF8AA
:100C600008FB00BF4DF808EDFFF7C8FF34BF0120B7
:100C700000205DF808FB00BF53B94AB9002908BF3E
:100C800000281CBF4FF0FF314FF0FF3001F03AB9A0
:100C9000ADF1080C6DE904CE00F006F8DDF804E0D3
:100CA000DDE9022304B070472DE9F047089D0E46A8
:100CB00004460F46002B4AD194468C45B2FA82F284
:100CC00060D942B1C2F12003974020FA03F30CFA35
:100CD00002FC1F4394404FEA1C4E1FFA8CF6B7FBF0
:100CE000FEF1230C0EFB117743EA074301FB06F0EC
:100CF00098420AD91CEB030301F1FF3780F01581FC
:100D0000984240F21281023963441B1AA4B2B3FB29
:100D1000FEF00EFB103344EA034400FB06F6A64245
:100D20000AD91CEB040400F1FF3380F00081A642D5
:100D300040F2FD806444023840EA0140A41B0021D7
:100D40001DB1D4400023C5E90043BDE8F0878B42C4
:100D500005D90DB1C5E9000100210846F5E7B3FA50
:100D600083F1002946D1B34202D3824200F2F580DA
:100D7000841A66EB030201201746002DE5D0C5E971
:100D80000047E2E7002A40F09380A1EB0C034FEA12
:100D90001C471FFA8CFE0121B3FBF7F607FB163048
:100DA000230C43EA00430EFB06F0984208D91CEBE3
:100DB000030306F1FF3802D2984200F2D080464683
:100DC0001B1AA4B2B3FBF7F007FB103344EA034449
:100DD0000EFB00FEA64508D91CEB040400F1FF330E
:100DE00002D2A64500F2B6801846A4EB0E0440EAF3
:100DF0000640A5E7C1F120078B4022FA07FC4CEA28
:100E0000030C06FA01FE20FA07F426FA07F344EA77
:100E10000E0400FA01F84FEA1C404FEA1449B3FBF4
:100E2000F0FE1FFA8CF600FB1E3349EA03430EFB6B
:100E300006F9994502FA01F20BD91CEB03030EF1F6
:100E4000FF3A80F08580994540F28280AEF1020E33
:100E50006344A3EB0909A4B2B9FBF0F300FB1399B7
:100E600044EA094403FB06F6A64208D91CEB040435
:100E700003F1FF3068D2A64266D9023B644443EADC
:100E80000E40A41BA0FB02E6B4427346B14652D307
:100E90004FD05DB1B8EB030264EB090404FA07F725
:100EA00022FA01F31F43CC40C5E9007400214CE74E
:100EB000C2F1200120FA01F30CFA02FC26FA01F13A
:100EC000964033434FEA1C471FFA8CFEB1FBF7F004
:100ED00007FB1016190C41EA064100FB0EF68E4284
:100EE00004FA02F408D91CEB010100F1FF382DD2FD
:100EF0008E422BD902386144891B9BB2B1FBF7F6B5
:100F000007FB161143EA014306FB0EF1994208D98B
:100F10001CEB030306F1FF3814D2994212D9023EAA
:100F200063445B1A46EA004136E73946EDE6184667
:100F300002E7F045ADD2BEEB020366EB0C060138CA
:100F4000B146A6E74646ECE7034698E74046D3E7B6
:100F5000D6467EE76444023847E708460DE7023E7E
:100F600063442DE703685A004CBF43F0004323F06D
:100F700000431844704700BF2DE9F04759B301F111
:100F8000FF380546164647464FF0000A0AEB0701B0
:100F900001EBD171491005EBC1094846FFF7E2FFAB
:100FA00088454FEAC104034610D004F10800B3425B
:100FB000284407D8FFF7D6FF0138B04208D201F124
:100FC000010AE3E78A4506D04F1EDFE7B042F9D8B1
:100FD0004846BDE8F0874FF000094846BDE8F08775
:100FE000012809D0022805D0044B00280CBF184660
:100FF000002070470248704702487047BD1600083D
:10100000C5160008C116000830B5224B83B004464F
:101010008D1E43B301A92846AFF30080F0B10199BA
:101020002A46FFF7A9FF0146C0B1FFF79BFF4B68B7
:10103000A064012B2BD0002B01F1040025DBFFF76E
:1010400091FF002323650368E064002B12DBFFF7A8
:1010500089FF03460020236103B030BD002309202F
:10106000236103B030BD0C4B0C49C91AC910184696
:101070000191D5E7C3F30360FFF7B2FF031E0CBF76
:1010800009200020236103B030BD0123DAE70023EB
:101090000520E0E700000000249304087CA5040874
:1010A0000368DA0710B5044606D49B0700F1500028
:1010B00009D500F095FC2368590709D51A070ED504
:1010C000DB0613D510BD00F083FC23685907F5D467
:1010D00004F1D80000F08CFC23681A07F0D404F562
:1010E000AC7000F08DFC2368DB06EBD404F5EC70EB
:1010F000BDE8104000F0C8BC0346006800B11844C9
:10110000704700BF09207047704700BF70B50446A4
:101110000E46316C2046FFF777FF054688B9326CE2
:101120006261236932462146012098470828F0D0A1
:10113000072806D12846316CFFF7E6FF301D00F086
:101140003BFCFFDE2DE9F04701F1040CC768D0F845
:10115000188006469146BCE80F00ADF5767D03ACDD
:101160000FC4BCE80F000FC4BCE80F000FC49CE81C
:101170000F0002AD4FF0000E84E80F00C5F800E04C
:1011800021E02B6C73614FF4F47229467CA807F0C0
:101190000FFF33697CAA3146504698478A9BAB645F
:1011A0004946CDE900588246334601203246B847C9
:1011B000814630BB4FF4F4727CA9284607F0F8FE54
:1011C000BAF1080F1AD1296C3046FFF71DFF09F15B
:1011D000090904465FFA89FA0028D2D0AB6BAB64E8
:1011E0003246CDE9005833464AF010010120B84795
:1011F00038B920460DF5767DBDE8F087BAF1070FC6
:1012000005D0092420460DF5767DBDE8F0874846D7
:10121000296CFFF779FF03A800F0CEFB806C7047C4
:10122000F0B5CB6B0B6401F1040C0E460546BCE82F
:101230000F00FBB001AC0FC4BCE80F000FC4BCE84A
:101240000F000FC49CE80F004FF0FF3784E80F0039
:10125000009706E02B696A46294698470828044605
:1012600008D110992846FFF7CFFE0028F2D00920B8
:101270007BB0F0BD6846FFF713FF062CF7D131466F
:101280002846FFF743FF00BFC160D96B8261196434
:101290000022194656E700BF70B5C66843690B6463
:1012A000AEB903690A4604460D4601460220984736
:1012B000072805D008280ED129462046FFF726FF2B
:1012C0003046296CFFF720FF281D00F075FB012236
:1012D000FFF738FFFFDEFFDEC2681AB1CA6B0A648F
:1012E00000222FE79CE700BF704700BF83680146DC
:1012F0000BB1012018477047052915D8DFE801F028
:101300000A031403030501207047009A436C13601D
:101310000020704743B90F2A06D800EB8202002054
:101320005368009A136070470220704700B585B07B
:101330000A46002303A900911946FFF7DDFF039831
:1013400005B05DF804FB00BF052915D8DFE801F002
:101350000A031403030501207047009B1B684364C4
:101360000020704743B90F2A06D8009B00EB820289
:101370001B685360002070470220704710B584B08E
:10138000002303AC039200940A461946FFF7DCFFE2
:1013900004B010BD70B5D36B136402F1040C0546A4
:1013A0000C46BCE80F00ADF5107D0DF15C0EAEE80B
:1013B0000F00BCE80F00AEE80F00BCE80F00AEE87D
:1013C0000F009CE80F004FF0FF368EE80F001696D6
:1013D00010E0FFF7D3FF214616A8A847034616AA38
:1013E0000820694683B9049B9847052806460CD017
:1013F000092809D026996846FFF706FE03460C2106
:101400006A4616A8002BE4D0092616A8FFF748FE66
:1014100030460DF5107D70BD2DE9F04F1646CA6CB3
:1014200089B00D4652F8041B069200F0030C002B05
:1014300079D00C0C8DF81D400904E4B2059102EB43
:10144000840202218DF81C10296DBCF1020F08BF27
:10145000AA6B11F0010809D005A9304600F0AEFBD7
:10146000002856D1082009B0BDE8F08F1768002F7A
:10147000F2D000F00801CDE90118E3469A46BAF12E
:10148000020F4CD01788548802F10409AA6C24F08A
:1014900001030F21304603EB0208FFF747FF8045A9
:1014A0003BD827F0010202EB0803834294BF0023DC
:1014B0000123640004F0020407F001072743012F11
:1014C0004ED0022F35D027BBBBF1000F02D0002B2E
:1014D00040F0D38009F104021768002FCFD105A98D
:1014E0003046DDF8088000F069FB90B9B8F1000FD4
:1014F000B8D00F213046FFF719FF0E2102463046C3
:10150000FFF73CFF6C4A0F213046FFF737FF0720FB
:1015100000E0092009B0BDE8F08F0023C9E7546856
:1015200002F10809B2E7090205918DF81D30032187
:1015300088E7D9F8004024F00048BBF1000F47D1FC
:101540002BB1019B002B5CD0B8F1000F59D0002CBF
:1015500001DA09F1040908F1010209EB8202BBE793
:10156000BBF1000F1CD1C3B1D9F80430D9F8002069
:10157000991C4FEAD272CCD005F15804013304947F
:1015800000F08E8009F10400FFF7B6FD04AB0146C0
:10159000284613F083FE002859D109F108029BE781
:1015A0000D213046FFF7C2FE2C6A8442F5D1AB6AAA
:1015B0009945F2D14846FFF7D5FC0F210246304647
:1015C000FFF7DCFE2A4600213046FFF7D7FE9EE7F4
:1015D0000D213046FFF7AAFE2F6A8742B7D1AB6ACA
:1015E0009945B4D100240423C5E90B434B44C5F805
:1015F00028806B63D9F80030A34258DB01230293A3
:10160000A9E705F15803CDF80CB009F10407B3467A
:1016100000241E460BE038460496FFF76DFD0022BD
:10162000014604AB284613F039FE0437F8B94445A7
:1016300004F10104EFD10D215846FFF777FE049B1A
:10164000C5F828900246C5E90823062062E704464B
:101650000D213046FFF76AFE049E2862022C04BF6B
:10166000EE6205F12C06C5E90969062052E75E46DF
:10167000D9F80040DDF80CB069E74846FFF772FC86
:1016800009F104030446AB63284613F05FFE00280B
:101690003FF43FAF22460F213046FFF76FFE36E79B
:1016A00030460D21FFF742FE26462862DBE708F1AF
:1016B000010209EB82007EE7497E01080023ABE6C8
:1016C0000123A9E60223A7E62DE9F0410646C4B0AE
:1016D0001446052900F2D880DFE811F012002D0031
:1016E000D6006C0091000600836B002C40F0CC808B
:1016F00053F8042B42648363002044B0BDE8F081BA
:10170000002B40F0C180856B1FFA84FC012006F19C
:10171000040E00FA03F111EA0C0F2A4604D052F825
:10172000041B4EF8231015460133102BF1D1A704EA
:10173000E2D4B563E0E7012B4FEA1447A4B200F00E
:101740008380052B40F0A08007EB0408B8F1200F40
:1017500000F29A800F2F40F29980002CCCD00268C2
:10176000500700F11881019302AD284600F044F9BA
:101770004FEA440CA7F11000B16B019B0CF1FF3C48
:1017800005EBC0000CF1010C043801EB8C0251F8A0
:10179000044B40F8044F9142F9D1012B00F0DE8058
:1017A0000F2FB16302D822A800F01AF9284600F0E2
:1017B0001FF9A1E7032B67D1A7B207EB1443102B46
:1017C0004FEA144460D80368190700F1BF8022ADC6
:1017D000284600F037F97A00B06B05EBC404531EBD
:1017E00042B1011B625844F8042B013B5A1CF9D149
:1017F00000EBC700B063284600F002F97CE7002B3D
:1018000042D1102C40D80368DD0600F1978022AD4C
:10181000284600F043F9B76B294600234FF0010C2E
:101820000CFA03F22242384603F1010303D050F8C8
:10183000042B0A600746042B01F10401F0D1B763C1
:10184000284600F021F957E73A19102A1CD8102F22
:101850001AD00268D00708D5304622F0030240F8BB
:10186000502B019300F0B8F8019B019322AD28465C
:1018700000F0B2F8B26B019B002C58D10432B26375
:10188000284600F0A5F837E7022036E7B8F1100F38
:10189000026865D9D40772D522F0010242F0020233
:1018A00040F8502B019300F09FF83268019B12F032
:1018B000040F66D122AD2846019300F095F802A8E6
:1018C00000F09AF8C7F110014900B26B019BA8F132
:1018D000100C4C1E05EBC7000134043802EB8401E8
:1018E00052F8044B40F8044F8A42F9D1BCF1000F82
:1018F0005AD0102F384638BF10204FEA4C0C103801
:1019000002AD0CF1FF3C05EBC0003BE7304622F096
:10191000010242F0020240F8502B22AD019300F088
:1019200063F8284600F060F8B26B24B3019B6400B2
:10193000013C05EBC7004FF0000CCDE723F010038E
:10194000036000F5EC7000F0A9F860E723F00803ED
:10195000036000F5AC7000F075F838E722AD8DE754
:10196000D107D3D422AD2846019300F03DF8B26BE5
:10197000019B002CDBD1284600F032F8BCE654076E
:1019800098D5304622F0040240F8D82B019300F09D
:1019900033F8019B8EE7304622F0040240F8D82B42
:1019A000019300F029F8DFE6012B3FF467AF0F2F1A
:1019B000B2633FF6A1AEDEE700F1340191E83800F2
:1019C0009C46A6464CF8045D90E8FF0FE54600BD36
:1019D00090EC210B704700BF80EC210B704700BFDB
:1019E00090EC200B704700BF80EC200B704700BFCD
:1019F000D0EC200B704700BFC0EC200B704700BF3D
:101A0000F0EC0201F0EC0211F0EC0221F0EC0231FA
:101A1000F0EC0241F0EC0251F0EC0261F0EC0271EA
:101A2000F0EC0281F0EC0291F0EC02A1F0EC02B1DA
:101A3000F0EC02C1F0EC02D1F0EC02E1F0EC02F1CA
:101A4000704700BFE0EC0201E0EC0211E0EC022183
:101A5000E0EC0231E0EC0241E0EC0251E0EC02612A
:101A6000E0EC0271E0EC0281E0EC0291E0EC02A11A
:101A7000E0EC02B1E0EC02C1E0EC02D1E0EC02E10A
:101A8000E0EC02F1704700BFB0FC0181B0FC0191B5
:101A9000B0FC01A1B0FC01B1704700BFA0FC018106
:101AA000A0FC0191A0FC01A1A0FC01B1704700BF06
:101AB000EC4600B52DE900502DE9FF1F4FF0000363
:101AC0002DE90C0001A9FFF7ABFBDDF840E012B0F7
:101AD000704700BFEC4600B52DE900502DE9FF1F0F
:101AE0004FF000032DE90C0001A9FFF7D5FBDDF84D
:101AF00040E012B0704700BFEC4600B52DE9005041
:101B00002DE9FF1F4FF000032DE90C0001A9FFF79D
:101B1000E3FBDDF840E012B0704700BFEC4600B5D3
:101B20002DE900502DE9FF1F4FF000032DE90C00B7
:101B300001ABFFF7A9FBDDF840E012B0704700BF32
:101B4000EC4600B52DE900502DE9FF1F4FF00003D2
:101B50002DE90C0001AAFFF71DFCDDF840E012B0F2
:101B6000704700BF027A03467AB9427AA2B141684F
:101B7000013A10B44272086803220C1D1A72020264
:101B80005C60000E10BC1A6070470068013A1A725F
:101B900002021A60000E7047B020704700B585B091
:101BA00003AA0023009219460C22FFF7A5FB039815
:101BB00005B05DF804FB00BFF0E700BF2DE9F0437E
:101BC000064685B00D464FF000082846FFF7CAFFCD
:101BD000B028044600F01C8107065BD500F0F00336
:101BE000A02B1AD030D8802B00F08280902B27D1E8
:101BF00000F00D030D2B23D002AF002300F00F02E5
:101C0000194600973046FFF777FB002300970D2217
:101C100019463046FFF798FBD7E7C34303F00703A5
:101C20004FF47F621A41010702F47F6201D542F44A
:101C30008042002319463046FFF746FD0028C4D0F5
:101C4000092005B0BDE8F083B02B68D0C02B3DD192
:101C5000C62800F0CA80C72800F0DF8000F0F80333
:101C6000C02B00F0EC80C82800F0F780C928E7D12D
:101C70002846FFF777FF020300F00F0002F47022FE
:101C800001300243012105233046FFF71DFD0028E6
:101C90009BD0D5E78300DBB21F1D0DF1080900239F
:101CA0001946CDF800900D223046FFF725FB029B28
:101CB000CDF8009060064CBFDF1BFF1800230D22FB
:101CC000194630460297FFF73FFB7EE700F0F80326
:101CD000D02BB5D100F007020132052342F40022D7
:101CE00001213046FFF7F0FC00283FF46EAFA7E774
:101CF0002846FFF737FF24022043B0F5004F9FD05E
:101D000004010023A2B219463046FFF7DDFC00288B
:101D100096D114F4004F18BF4FF0010855E7A0F119
:101D2000B103042B00F2B580DFE803F05529160C4F
:101D3000030003AA0023009219460D223046FFF744
:101D4000DBFA42E700231A4605213046FFF7BCFCC8
:101D500000283FF43AAF73E72846FFF703FF02037A
:101D600000F00F00013002F47022012302431946F3
:101D70003046FFF7A9FC00283FF427AF60E70023B7
:101D80000DF108090D221946CDF800903046FFF7F5
:101D9000B3FA2846FFF7E6FE0206029C4FF0020760
:101DA0000BD500F07F00B840044428460294FFF7AA
:101DB000D9FE030607F10707F3D4B840002304F562
:101DC00001740444CDF800900D2219463046029467
:101DD000FFF7BAFAF9E62846FFF7C4FE431EDBB266
:101DE0000E2B02467FF625AF2AE72846FFF7BAFEFC
:101DF000020300F00F00013002F4702203230243BB
:101E000019463046FFF760FC00283FF4DEAE17E7C6
:101E1000B8F1000F2DD0002013E72846FFF7A2FEEF
:101E2000431EDBB20E2B02463FF60AAF002304210D
:101E30003046FFF749FC00283FF4C7AE00E700F04A
:101E40000F020132032342F4202219463046FFF7E5
:101E50003BFC00283FF4B9AEF2E62846FFF782FECD
:101E600000F0F00200F00F031032013343EA0232B7
:101E700008E702AC4346414600940E223046FFF785
:101E80003BFA0F220094434641463046FFF75CFA86
:101E9000C1E700F0FC03B42B3FF4D2AE00F0070220
:101EA0000132012342F4002219463046FFF70CFCB0
:101EB00000283FF48AAEC3E610B5C26C536884B004
:101EC0004FF0030C08321C0208461B0E01A90194B6
:101ED00002928DF80CC08DF80D30FFF76FFE04B044
:101EE00010BD00BF08B5FFF767FE806C08BD00BFDE
:101EF00008B5FFF761FEC06CC37900EB83000830C2
:101F000008BD00BF704700BF10B4044C03460A462A
:101F1000206810BC194607F085BA00BF7001002088
:101F200000B5054B83B0014601AA186807F07AFA9C
:101F300003B05DF804FB00BF70010020000000004A
:101F400030B490F800F020F007016FF0000C10F0B2
:101F5000070491F820F040F048804FF000046FF043
:101F60000700D1E9002391F840F000F1080082FA5F
:101F70004CF2A4FA8CF283FA4CF3A2FA8CF34BBB2A
:101F8000D1E9022382FA4CF200F10800A4FA8CF2A3
:101F900083FA4CF3A2FA8CF3E3B9D1E9042382FA71
:101FA0004CF200F10800A4FA8CF283FA4CF3A2FA86
:101FB0008CF37BB9D1E9062301F1200182FA4CF2BE
:101FC00000F10800A4FA8CF283FA4CF3A2FA8CF325
:101FD000002BC6D0002A04BF04301A4612BAB2FA47
:101FE00082F200EBD20030BC7047D1E9002304F04C
:101FF0000305C4F100004FEAC50514F0040F91F881
:1020000040F00CFA05F562EA05021CBF63EA05031D
:1020100062464FF00004AAE7830730B547D0541E4C
:10202000002A3ED0CAB2034601E0013C39D303F88E
:10203000012B9D07F9D1032C2CD9CDB205EB052539
:102040000F2C05EB054535D9A4F1100222F00F0C39
:1020500003F1100EE6444FEA121C1A46C2E900557D
:10206000C2E9025510327245F8D10CF1010214F0A8
:102070000C0F03EB021204F00F0C13D0ACF10403AD
:1020800023F003030433134442F8045B9342FBD16F
:102090000CF003042CB1C9B21C4403F8011BA34289
:1020A000FBD130BD64461346002CF4D1F9E703465A
:1020B0001446C0E71A46A446E0E700BF32B18446A2
:1020C000002301339A424CF8041BFAD1704700BF39
:1020D00010B51C4C002924689AB02DDB00900490A8
:1020E0004FF40270ADF80C004FF00000199013D0BF
:1020F00001394FF6FF7002910591ADF80E00694667
:10210000204601F077FA421C01DA8B232360009B02
:1021100000221A701AB010BD4FF6FF70029105919F
:10212000ADF80E006946204601F064FA431C01DA5E
:102130008B2323601AB010BD8B2323604FF0FF3038
:10214000F8E700BF7001002030B51446002C9BB0AA
:1021500005462EDB1A464FF40273ADF80C304FF0F3
:10216000000300910491199313D04FF6FF73013CC3
:10217000ADF80E3069461E9B0294059401F03AFAC0
:10218000421C01DA8B232B60009B00221A701BB0CB
:1021900030BD4FF6FF73ADF80E3069461E9B0294BA
:1021A000059401F027FA431C01DA8B232B601BB046
:1021B00030BD8B2303604FF0FF30F8E700000000D4
:1021C0002DE9F04F9FB00E46002107921A91002290
:1021D0000021CDE90412834631461991884611F851
:1021E000012B2D2A5ED801A050F822F0C12300084F
:1021F000A5220008A5220008A5220008A5220008A3
:10220000A5220008A5220008A5220008A522000892
:10221000DB210008DB210008DB210008DB210008AE
:10222000DB210008A5220008A5220008A52200083D
:10223000A5220008A5220008A5220008A522000862
:10224000A5220008A5220008A5220008A522000852
:10225000A5220008A5220008A5220008A522000842
:10226000A5220008A5220008A5220008DB210008FD
:10227000A5220008A5220008A5220008A522000822
:10228000A5220008A5220008A5220008A522000812
:10229000A5220008A52200083F290008A522000861
:1022A0005729000800210891302A00F095804FF04E
:1022B000000A2F2A174640F2E8844FF000094046F2
:1022C0004D464C4613E00130082C1990C8BF09EB6D
:1022D00089090778C6BF02EB4902A2F13009A3F1D0
:1022E00030052F2F04F101043A4640F3B88005EB86
:1022F0008503392F02EB4303E5DDAE49012203F0EC
:10230000EDF800287DD1199A1346013219925F78B1
:10231000002C40F07985302F40F073851346184625
:10232000013319931F78302FF9D0C2F10102104404
:10233000A7F13103082B37D8431CDDF864800E93D6
:102340000023A7F1300E01244746099305EB8505CC
:102350000EEB450500207B1C19937F78A7F1300216
:10236000092A00F2DE82199F01309646002AF2D037
:102370000128D8BF04F1010C40F3C08600EB040C27
:102380000CF1FF3103E05D00A14200F0B786082C9C
:1023900005EB850304F10104F5DD102CDCBF09EB2E
:1023A00089094FEA4909EFE7652F40F0D7820023FA
:1023B0000122CDE909320E935AEA000340F0BD82B2
:1023C000079B4FF000084FF0000903B11E60404624
:1023D00049461FB0BDE8F08F98F8012002F0DF02F7
:1023E000582A18BF434600F00D84013319931A7818
:1023F000302AFAD09846002A00F07B824FF0010A7A
:1024000057E7002009940E900A90652F34D0452F8D
:1024100032D000230F93002C77D15AEA000040F00D
:1024200068820A9B002BCBD1692F00F05A8400F3FD
:102430005384492F00F055844E2FC1D15E4919A80D
:1024400009F0CAFB0028BBD0199B1B78282B00F091
:1024500058855A4809F0ECFE804689464DE25549B8
:10246000012203F03BF80028CBD1199B09945A1C98
:1024700019925F780E9071E7002C9DD0199E731C05
:10248000199377782B2F00F055822D2F00F04C8276
:102490004FF0000CA7F13001092900F23E82302FE5
:1024A000199B0AD1013319931F78302FFAD0A7F165
:1024B0003102082AADD8A7F130015A1C19925F7871
:1024C0002F2F40F3F58396460B9308E001321992C3
:1024D0009EF801702F2FA3F1300106DD964601EB27
:1024E0008103392F07EB4303F0DD0B9BD21A082A37
:1024F00040F3DE8344F61F630F93BCF1000F8AD0D4
:102500000F9B5B420F93002C87D0099A1346002A39
:1025100008BF23460993DDE90E23102CA3EB020329
:1025200028460B93A246A8BF4FF0100AFDF7CEFF36
:10253000092C02460B46CDE9042315DD204B03EBA5
:10254000CA0353E912230FF095F8064648460F4692
:10255000FDF7BCFF02460B4630463946FDF77AFED2
:102560000F2CCDE904012DDC0B9B002B00F01A830E
:102570000B9B40F34F82162B40F3A1830B9AC4F1BF
:10258000250393421EDB0E4DC4F10F0405EBC4017D
:10259000DDE90423D1E900010FF06CF80B9B1C1B53
:1025A00005EBC405D5E900230FF064F880468946A1
:1025B000A3E100BFEC2B0408FC2B04089C340408A6
:1025C000902204080B9BA4EB0A0A9A44BAF1000F6C
:1025D00040F3CA811AF00F000AD0354901EBC0015F
:1025E000DDE90423D1E900010FF044F8CDE904014D
:1025F0003AF00F0A3FD0BAF59A7F00F38983BAF117
:10260000100F4FEA2A16DFF8ACA040F3C284DDE9D0
:102610000401002357469946F20704D5D7E9002361
:102620000FF028F801237610012E09F1010907F1B6
:102630000807F1D10BB1CDE90401059BA3F1547357
:1026400005930AEBC90ADDE90423DAE900010FF07A
:1026500011F8194BCDE904010B400A4617498B428A
:1026600000F2568316498B4240F22884154B4FF0F6
:10267000FF32CDE9042300230A93099A00952346EB
:10268000414658460AF05AF81490002800F040835A
:10269000DDE90E329B1A0B9A002AA8BF00230E9385
:1026A0004FF0000A22EAE273CDF824A01593E0E08F
:1026B00090220408802304080000F07F0000A07C22
:1026C0000000907CFFFFEF7FD21A1F2AA4EB0204C8
:1026D00000F32E8201239340984600250A9B26444E
:1026E0003C44A7421E443B46A8BF2346B342A8BF72
:1026F0003346002B02DDE41AF61AFF1A0E9B002B5C
:1027000000F3BC81002C00F3D2810B9B002B00F363
:102710000582002E00F3F681002F08DD51463A466F
:1027200058460AF0F5F98246002800F0F4811A991B
:102730004A4658460AF084FA0990002800F0EB81D6
:10274000099A0023D1680F91D36051460AF058FAD4
:102750000028C0F2E983059F00F063830998514681
:102760000AF00EFC00224FF0804304460D46FDF7B0
:1027700091FF002800F072810F9B002B40F0E48154
:10278000049B002B40F06D82C7F31303002B40F035
:102790000C82AB4B002220462946FDF771FF002832
:1027A00040F03683A74B2046294600220EF062FFF8
:1027B00003460C46CDE9123401F100430C900D9311
:1027C000A14EA24B3E409E42DDE90C4500F0C38184
:1027D0000A9B23B3B6F1D46F21D8DDE9127896A312
:1027E000D3E9002338464146FDF754FFA0B14146E6
:1027F00038460FF08FF9012838BF0120FDF766FE3B
:102800000F9BCDE91201002B40F0AA8201F1004399
:1028100016901793DDE9164505F1D6639D1BDDE99A
:102820001078384641460AF0C7FA02460B46204661
:1028300029460EF01FFF3A464346FDF70BFDCDE952
:1028400004010C460A9B23B97F4B23409E4200F0B3
:10285000B5811A99584609F017FF4946584609F0BC
:1028600013FF5146584609F00FFF0999584609F0E1
:102870000BFF149C5846616809F0E0FE8146002871
:1028800000F049812269023204F10C0192000C30FF
:1028900006F08EFB1CAB01931BAB0093DDE9043407
:1028A0005846CDE910341A4623460AF00BFB1A901D
:1028B000002800F005810121584609F0EBFF82460F
:1028C000002800F028811B9B002BC0F217810E9A74
:1028D000159E9F180A9A1C9C9B1A23445C4A013B34
:1028E0009342C4F13604FFF6EFAE0123002598466B
:1028F000F4E64FF000084FF00009079A0AB1199B5F
:102900001360089B002B3FF462AD09F10043994628
:10291000404649461FB0BDE8F08F002319960F933B
:1029200079E501230A9370E54FF0010CB31C19936C
:10293000B778AFE54FF0000CF8E700249EE50022E1
:10294000089208F10101199198F80120002A3FF43A
:1029500037AD8846A8E401220892F2E7452F3FF4FC
:1029600026AD01230A9358E53FF485AECAF100066F
:1029700016F00F020AD0374B03EBC203DDE9040166
:10298000D3E900230EF0A0FFCDE9040136113FF496
:1029900072AE1F2E36DC16F01003DDE9040118BFFD
:1029A0006A232D4F0A930023F20704D5D7E90023A9
:1029B0000EF060FE0123761007F10807F4D10BB189
:1029C000CDE904010A9BA3B1DDE90401C1F30A5278
:1029D000C2F16B03002B0ADD1F2B40F31383002091
:1029E000342B049040F34D834FF05C7305936A23BE
:1029F0000A93DDE9040100220023FDF737FE0028D9
:102A00003FF43BAE2223CBF800304FF000084FF0EC
:102A1000000972E71633FFF6D5ADDDE90E329A1ADA
:102A20000C4B03EBC203DDE90401D3E900230EF0F4
:102A30004BFF8046894660E70000C0FFFFFFDF4193
:102A40000000F03F0000E03F0000F07F0000E07F6A
:102A500002FCFFFF90220408F01E0408B44B20463D
:102A6000294600220EF006FE0F9BCDE91201002B35
:102A700065D101F100430C900D93A1E651461A4631
:102A8000584609F0EBFF8246002844D001461A9AC6
:102A9000584609F02DFF00283DD00F901A9958464E
:102AA00009F0F2FD0F9B1A93002C7FF72EAE1A99B6
:102AB000224658460AF02CF81A9000287FF425AEDA
:102AC0004F4605462223DFF86C92CBF800304FF0DA
:102AD00000082946584609F0D7FD3946584609F0FE
:102AE000D3FD5146584609F0CFFD1499584609F0D8
:102AF000CBFD0999584609F0C7FDFEE6159A0E9FD1
:102B0000D61AE7E64946324658460AF001F88146A9
:102B100000287FF401AE1A9D4F46D3E74946159A27
:102B2000584609F09BFF814600287FF4F2ADF2E79A
:102B3000814AD31A012202FA03F59046CEE5DDE977
:102B40001234CDE90C343BE67C4C0023CDE90C3447
:102B5000CDE9123434E6A7F154730593DDE9044559
:102B6000204629460AF028F9DDE90C230EF082FD03
:102B70002B462246FDF76EFB6E4F714B0F409F4276
:102B8000CDE904017DD9DDE9100103F154739942C7
:102B900002D1B0F1FF3FBED06A4C4FF0FF33CDE918
:102BA000043456E6DDE90489A7E6674C0023CDE945
:102BB0000C34624C0023CDE9123401E6DDE91256F3
:102BC000314628460FF02CF8FDF7CCFC02460B46A8
:102BD00028463146FDF73CFB0F9B049AC4F31304CF
:102BE0001343234306460F4629D14BA3D3E90023C1
:102BF000FDF746FD00283FF42CAE4F46DDE9048981
:102C00001A9D66E70293089B01931AAB00934F4A03
:102C10001BAB19A9584602F095F810F00F050446B1
:102C20003FF467AE062D40F0A08008F10103199330
:102C300000234FF000084FF0000908935DE638A329
:102C4000D3E90023FDF71CFD0028D6D136A3D3E934
:102C5000002330463946FDF731FD00283FF4F9AD39
:102C6000CBE7049B012BA0D1002F9ED14F461A9C8D
:102C700022232546CBF800304FF000084FF0000922
:102C800027E701F154740594DCE5314901224046FF
:102C900002F024FC002800F0AB804FF00009CDE9E1
:102CA00009994D464846CDF838904C46FFF7AFBBE2
:102CB00044F61F639942A8BF19460F911DE40B9873
:102CC000244901EBC001DDE90423D1E900010EF044
:102CD000D1FC8046894610E66E2F3FF4AFABFFF77C
:102CE0006FBB1D4919A808F077FF00283FF468ABB7
:102CF000199B1A49013B19A8199308F06DFF10B9E7
:102D0000199B01331993DFF82C904FF00008F4E57C
:102D10002223CBF80030F6E79535A094FFFFCF3F94
:102D20009535A094FFFFDF3F35E5AF350000E03F6C
:102D30000000E03F0000F07FE2FBFFFF0000F03FFB
:102D4000FFFF9F7CFFFFEF7F0000F0BFC81E04085D
:102D5000EC2B040890220408F02B0408F42B040840
:102D6000DDE91234CDE9163454E51A9A3AB1352129
:102D70001CA80AF04FF91A99584609F085FC013D44
:102D80001B9B042D00F2D881DFE805F0032C291EDF
:102D900003001C9A049203F233421D9B23F4801318
:102DA00043EA02530593E10502D543F0004305933E
:102DB000A74A1A40DDE90489002A7FF49EAD02F09B
:102DC000A5FC2223036098E54FF0FF326FF000432B
:102DD000CDE90423E3057FF5E5AE059BE5E79C4BD4
:102DE0000593F7E7DDE91C121D9BCDE90412DAE734
:102DF000199A1346013219925F7805468146FFF70A
:102E00008ABA0020FFF794BA09940E90FFF7A6BA89
:102E1000904C0023CDE90C348F4C0023CDE91234C3
:102E2000CEE40F988D493B46C4464F46AE46DDE999
:102E30001089C3F31302002845D08A4200F0EA80CB
:102E4000ADBB049A1CEA020F34D0404649460493B5
:102E500009F0B2FF0A9B002B00F04081049BC3F3F2
:102E60000A53C3F16B03002B40F342811C0504F1AC
:102E70007F53002203F540130EF0FCFB02460B4685
:102E800040464946FDF7E6F980468946744B404680
:102E9000494600220EF0EEFB6D4B0B408046894602
:102EA000002B7FF4ADAE2223CBF80030A8E61EEA5B
:102EB000030FCAD10A9B002BE8D1A1E602F154739B
:102EC0000593FFF7D8BB002A67D1DDE90445224608
:102ED000002C40F08F800A9A002A40F0EC8025F008
:102EE0000044240D2405A4F580146FEA14536FEAFE
:102EF000035305934FF0FF330493DDE904891A9DD2
:102F0000E7E5584919A81CAA08F080FE05287FF4B7
:102F1000A0AA1D9B43F0FF4343F4E00305931C9BD1
:102F20000493DDE90489E8E4DDE904010F9B034330
:102F30004F46DDE91089BDD1C1F31303002BB9D190
:102F400021F00044240D2405B4F1D66F2546B1D9F3
:102F5000099A536913B91369012BABDD0999012251
:102F6000584609F0D5FD5146099009F049FE002860
:102F7000A0DD0A9B002BB6D0A5F580136FEA135392
:102F80006FEA035305934FF0FF330493DDE904899F
:102F90007CE74FF00009FFF750BB75BB049A1CEAB1
:102FA000020F87D040464946049309F005FF0A9B6B
:102FB000002B6ED0049BC3F30A53C3F16B03002BA9
:102FC00040F399801C0504F17F53002203F5401360
:102FD0000EF050FB02460B4640464946FDF738F9D5
:102FE0000022002380468946FDF740FB00283FF47D
:102FF0004DAF3CE6BEF1000FD1D01EEA030F3FF407
:1030000059AFCFE74FF0FF3202FA03F3049A1A40A8
:103010000492ECE40A9A0499B2B10D4A1A40B2F152
:10302000D46F11D8120DC2F16B024FF0FF3000FACD
:1030300002F2914218D0BEF1000F7FF438AF11EACE
:103040000C0F3FF437AF00E74FF0FF32F1E700BF5E
:103050000000F07F0000E0BF0000E03FFFFF0F0036
:1030600000005039DC1E0408344A934259D0344AD7
:103070001A4002F58013059300230493DDE90489C7
:1030800018E7C2F14B024FF0FF3393400B4005931A
:10309000ADE402460B4640464946FDF7D9F81A9C76
:1030A00000220023804689462546FDF7DFFA0028E6
:1030B0003FF40FADDCE5224D1D40B5F1D66F3FF674
:1030C0005BAFB5F15C7F3FF6E1AE22231A9DCBF8F2
:1030D00000304FF000084FF00009FAE402460B46BA
:1030E00040464946FDF7B6F81A9D80468946F0E409
:1030F00002460B46C4E602460B466DE70E9B082CC3
:1031000003440E9302DC6446FFF720B9BCF1100FB4
:10311000DCBF09EB890902EB490964460020FFF78F
:103120001AB90131A3D122231A9DDFF81490CBF8EC
:1031300000304FF00008CCE4002334E6FFFFEF7FBF
:103140000000F07F014BFFF73BB800BF04000020F8
:1031500010B4044C84461346206810BC0A466146ED
:10316000FFF72EB87001002010B4044C044B8446C5
:103170000A46206810BC6146FFF722B870010020A3
:10318000040000202DE9F047DFF88CA00446134628
:10319000DAF800000A462146FFF712F802460B460D
:1031A00004460D460EF078FC48BB294620460EF03A
:1031B000D1FC20F000470646184938460EF01AFDAB
:1031C000D0B916493846FDF739FDA8B925F00049B0
:1031D000134B4FF0FF32204649460EF05DFC38B9E4
:1031E0000F4B204649464FF0FF32FDF753FA18B116
:1031F000DAF8003022221A603046BDE8F087002D50
:10320000084804DA09F01AF800F10046F4E7BDE8CE
:10321000F04709F013B800BF70010020FFFF7F7F67
:10322000FFFFEF7F9C3404082DE9F047DFF8A0A0F2
:10323000284B04460A46DAF800002146FEF7C0FF94
:1032400002460B4604460D460EF026FC002833D1FC
:10325000294620460EF07EFC20F0004706461E4917
:1032600038460EF0C7FCE8B91B493846FDF7E6FCC6
:10327000C0B925F00049194B4FF0FF3220464946AE
:103280000EF00AFC38B9154B204649464FF0FF3284
:10329000FDF700FA30B1DAF8003022221A60304629
:1032A000BDE8F08716F0FF4FF9D10D4B2B40002BF6
:1032B000F1D13046BDE8F087002D0A4804DA08F065
:1032C000BDFF00F10046EAE7BDE8F04708F0B6BFF1
:1032D0007001002004000020FFFF7F7FFFFFEF7FD1
:1032E0000000F07F9C340408431C1ED030B587B02A
:1032F00004AC03460822002120468DF80B30FEF76F
:103300008BFE0B4A0B4B1068D3F8E450009401235A
:103310000DF10B0203A9A847012802D8039807B0B2
:1033200030BD4FF0FF3007B030BD4FF0FF30704779
:1033300070010020040000200EB470B59DB021ACD7
:1033400000254FF4017254F8046BADF814201B955E
:1033500002900690FEF7F4FD0B4B0A930B4B039083
:103360004FF6FF710790ADF8161018680E953246AB
:10337000234602A91395019404F0A6FC1DB0BDE8F4
:10338000704003B0704700BF5592000870010020E4
:103390000CB4F0B59DB022AC00254FF40173064685
:1033A000084654F8047BADF81430029106911B9541
:1033B000FEF7C6FD0346039307930A4B0A934FF6A5
:1033C000FF73ADF816303A463046234602A90E95F3
:1033D0001395019404F078FC1DB0BDE8F04002B0F4
:1033E000704700BF5592000842B110B50B49104616
:1033F000144601F0E5FA18B9094810BD08487047AD
:103400000749204601F0DCFA0028F5D0054920469E
:1034100001F0D6FA0028EFD0002010BD002C0408DF
:10342000902904089C340408014B93F82801704744
:103430000400002041B110B50C4620460A4901F0B5
:10344000BFFA18B9094810BD084870470749204617
:1034500001F0B6FA0028F5D00549204601F0B0FA8F
:103460000028EFD0002010BD002C0408902904088B
:103470009C34040800000000000000000000000070
:1034800001F0FF01102A2BDB10F0070F08D010F815
:10349000013B013A8B422DD010F0070F42B3F6D119
:1034A000F0B441EA012141EA014122F007047FF032
:1034B00000070023F0E80256083C85EA010586EA89
:1034C000010685FA47F5A3FA87F586FA47F6A5FAC5
:1034D00087F68EB9EED1F0BC01F0FF0102F00702D1
:1034E00032B110F8013B013A83EA010313B1F8D17C
:1034F0000020704701387047002D06BF354603385D
:10350000073815F0010F07D1013015F4807F02BF95
:10351000013015F4C03F0130F0BC0138704700BFE6
:1035200011F0FF01034600F0030239D08ABB0268A4
:1035300010B501EB012E0EEB0E4E8EEA0204A2F145
:10354000013323EA0203A4F1013222EA0402134305
:1035500013F0803F0FD150F8044F84EA0E0CA4F111
:103560000133ACF1013223EA040322EA0C021343D3
:1035700013F0803FEFD0037823B936E010F8013F15
:10358000002B32D09942F9D110BD8A4228D09A0737
:1035900029D01A7818460133002AF6D11046704710
:1035A000CAB90268A2F1013323EA020313F0803F93
:1035B00008D150F8042FA2F1013323EA020313F0DB
:1035C000803FF6D003785BB110F8013F002BFBD1B0
:1035D0007047990705D0184613F8012B002AF8D137
:1035E00070471846DDE71846A1E7184610BD00BF32
:1035F00004F006BA2DE9F04FC3B00C460B91924689
:103600000D930C9009F0D8FD036814931846FEF74B
:1036100097FCA38913901E0603D52369002B00F0A5
:10362000A1860023CDE92633CDE915331293099302
:1036300000240023CDE9103432AA25929146D346C6
:103640009BF80030002B00F03C815C4604E014F84D
:10365000013F002B00F01981252BF8D1B4EB0B05AD
:1036600040F016812378002B00F02B814FF00003EF
:103670008DF8773000276378089704F1010B4FF03D
:10368000FF3A0BF1010B9846A8F12003582B00F2EA
:103690002581DFE813F049022301230144022301BD
:1036A000230123012301230123010C023E022301F4
:1036B00017021C0223013902590059005900590010
:1036C00059005900590059005900230123012301D1
:1036D0002301230123012301230123012301680086
:1036E0009E0123019E012301230123012301740272
:1036F0002301230195002301230123012301230139
:10370000A600230123013F062301230123012301F6
:1037100023012301230123012301230166026A00FF
:103720009E019E019E0161026A0023012301540251
:103730002301B00297009F029A022301790223011C
:10374000A800230123015F06A8F1300300221BF823
:10375000018B02EB820203EB4202A8F13003092B3A
:10376000F5D9089290E747F01007BD0640F16E8149
:103770000D9B073323F007031A46596852F8083B9C
:103780000D920A460029C0F28C81BAF1000F9DF813
:10379000774007DB27F08001069153EA020100F031
:1037A000A883069F0A2B72F1000180F06F863033E8
:1037B0008DF8C730012306970A930DF1C70550E035
:1037C00047F0100717F0200200F057810D9B0733D8
:1037D00023F0070319465A6851F8083B0D91002160
:1037E0000FE047F0100717F0200200F03C810D9B1E
:1037F000073323F0070319465A6851F8083B0D9127
:1038000001210024BAF1000F8DF8774007DB27F083
:103810008000069053EA020000F06C83069F0129A5
:10382000C0D0022900F0E78232AD03F00701DB08C7
:1038300043EA4273D208303153EA0206284605F8BB
:10384000011DF2D1FB0740F1E482302900F0E18252
:103850003023023805F8013C32AB1B1A06970A9355
:1038600005460A9B5345B8BF5346079300230F9361
:1038700014B1079B01330793069B13F002033FD05B
:10388000079B0233079302233AE0B4EB0B0518D0F1
:10389000279B2B442793269B0133072BC9E900B5AF
:1038A000269305DC09F10809099B2B440993D9E605
:1038B000DDE90B1025AA06F04FF930B90DF1C80962
:1038C000F2E7279B002B40F046870B9B9B895B060A
:1038D00001F11680099843B0BDE8F08FB8F1000FF0
:1038E000EFD000238DF8773001238DF8A080079367
:1038F0000A9328AD4FF0000A0697CDF83CA0534636
:10390000069A279C12F084020E9205D1DDE9071277
:10391000561A002E00F300839DF877208AB1269A6C
:103920000DF1770101320134C9F80010072A4FF078
:10393000010127942692C9F8041000F3268309F1A7
:10394000080983B1269A1EA901320234C9F8001071
:10395000072A4FF0020127942692C9F8041000F3B9
:10396000228309F108090E9B802B00F0B9810A9B84
:10397000AAEB0306002E00F3F581069BDE0500F19D
:1039800047810A9BC9F804301C44269BC9F80050A3
:103990000133072B2794269300F3548209F1080979
:1039A000069B5A0705D5DDE907239D1A002D00F374
:1039B0000683DDE9082307998A42ACBF9B185B1890
:1039C0000993002C40F02A82002326930DF1C809A8
:1039D00036E60D9B073323F00703F3E802450D930A
:1039E00025F0004319931894DDE91801B64B4FF008
:1039F000FF32CDE910450EF04FF8002840F00F845B
:103A0000DDE91801B04B4FF0FF32FCF743FE002810
:103A100040F005840022002320462946FCF730FEB2
:103A2000002840F030869DF87740A84D27F08003AD
:103A30000693A74BB8F1470FD8BF1D464FF0000AB9
:103A4000032307930A93CDF83CA011E70D9AFC06D7
:103A500052F8043B0D921FD478061DD543F3C032B3
:103A600011461BB28EE60D9951F8043B0D9117F0EB
:103A7000100100F0CC830121C3E60D9951F8043BFD
:103A80000D9117F010017FF4AAAE17F040023FF439
:103A9000A6AE0A469BB2A2E6DA1711460029BFF687
:103AA00074AE5B4262EB42022D240121AAE60D9B1B
:103AB00053F8042B0892002A80F2A183089A0D93F0
:103AC000524208929BF8003047F00407D9E55A4665
:103AD00012F8018BB8F12A0F00F05B87A8F13003D0
:103AE000092B98BF4FF0000A00F2C68612F8018B2E
:103AF0000AEB8A0A03EB4A0AA8F13003092BF5D92D
:103B00004AEAEA7A9346BFE59BF8003047F080071F
:103B1000B7E52B238DF877309BF80030B1E59BF8A3
:103B2000003047F00107ACE59DF877209BF80030A6
:103B3000002A7FF4A6AD20228DF87720A1E59BF81E
:103B400000306C2B03BF9BF8013047F020070BF1CE
:103B5000010B47F0100794E59BF8003047F0400751
:103B60008FE50D9B00228DF8772053F8042B0D93E1
:103B700001238DF8A02007930A9328ADBAE69BF89D
:103B8000003047F008077CE50D9C54F8045B0026E4
:103B90008DF87760002D00F01D85BAF1000FC0F29E
:103BA0001C84524631462846FFF76AFC002800F084
:103BB0005286431B0A9323EAE3730D94B2469DF8A1
:103BC0007740069707930F9652E69BF8003047F030
:103BD000200756E50D9A52F8043B0D9247F6300245
:103BE000ADF878203B4A159247F0020700220221E7
:103BF0004FF0780805E6BD0640F183830D9B099AD6
:103C00001B681A60D2175A600D9B04330D9317E599
:103C1000B8F1650F40F32281DDE910010022002395
:103C2000FCF724FD002800F00682269B2A4AC9F8EA
:103C30000020013301340122072B27942693C9F871
:103C4000042000F3A08409F108091F9B129A9342F3
:103C500003DB069BDD077FF5A3AE139B149A1C4480
:103C6000C9E90023269B27940133072B269300F3F1
:103C7000A48409F10809129B5D1E002D7FF790AE08
:103C8000102D269B154F40F3D280DDE90BA810269E
:103C900005E009F10809103D102D40F3C8800133FB
:103CA0001034072BC9E90076CDE92634F1DD25AAC9
:103CB0005146404605F050FF00287FF406AEDDE98E
:103CC00026340DF1C809E6E7FFFFEF7F0C2C04084E
:103CD000082C0408182C0408342C0408281F040895
:103CE000DDE907239E1A002E7FF741AE102E269B9A
:103CF000B74F24DD4A462146A946DDE90B5404E0CE
:103D0000103E102E02F1080216DD01331031102092
:103D1000072BCDE9263117605060F1DD25AA294631
:103D2000204605F019FF00287FF4CFAD103E102E7D
:103D3000DDE9263132AAE8DC4D460C4691460133D6
:103D40003444072BCDE92634C9F80070C9F8046063
:103D500000F326840A9BAAEB0306002E09F108094A
:103D60007FF70BAE102E269B994F2CDD4A4621463D
:103D7000B1464FF0100A2E46DDE90B5406E0A9F1DA
:103D80001009B9F1100F02F1080218DD0133904853
:103D90001031072BC2E9000ACDE92631EFDD25AA53
:103DA0002946204605F0D8FE00287FF48EADA9F103
:103DB0001009B9F1100FDDE9263132AAE6DC3546EB
:103DC0000C464E46914601333444072BCDE9263448
:103DD000C9F80070C9F8046000F3EA8109F1080924
:103DE000CBE50129069F4FF000033FF4E0AC022928
:103DF0001A467FF419AD159832AD03F00F011B0977
:103E0000415C05F8011D43EA0273120953EA0201FD
:103E1000F3D132AB5B1B06970A9322E5DDE90B1069
:103E200025AA05F099FE00283FF4CEAD4DE50133FB
:103E30002C44072BC9F80070C9F80450CDE926348A
:103E40007FF7ACADDDE90B1025AA05F085FE002853
:103E50007FF43BAD279C0DF1C809A1E5129B269E7E
:103E6000012B04F1010406F1010609F1080840F3F1
:103E70005B810123072ECDE92664C9F80050C9F8FB
:103E8000043000F3A281139B149A01361C44072EC0
:103E9000C8E90023CDE9266400F3A48108F10808ED
:103EA000129BDDE9100103F1FF3900220023FCF72A
:103EB000DDFB002840F05381013601354C44072ECC
:103EC000CDE92664C8F80050C8F8049000F33A81A0
:103ED00008F10808169BC8F8043001361C44072E68
:103EE00021ABCDE92664C8F80030ABDC08F1080945
:103EF00056E50121BAF1000F7FF473AF002940F0BD
:103F00000E8117F001030A9300F07E8130238DF8B3
:103F1000C7300DF1C705A4E4102E269A2D4F26DDDB
:103F200049462046A9461793DDE90B5404E0103EAC
:103F3000102E01F1080116DD013210301023072A7E
:103F4000CDE926200F604B60F1DD25AA29462046E9
:103F500005F002FE00287FF4B8AC103E102EDDE91B
:103F6000262032A9E8DC179B4D46044689460132DB
:103F70003444072ACDE92624C9F80070C9F8046042
:103F800000F3BE8209F10809C6E4DDE90B1025AA99
:103F9000179305F0E1FD00287FF497AC279C179B51
:103FA0000DF1C809CDE4DDE90B1025AA05F0D4FD1B
:103FB00000287FF48AAC279C0DF1C809D3E4102DAA
:103FC000269B044F24DDDDE90BA8102609E000BF85
:103FD000281F0408181F0408103D102D09F10809B6
:103FE00016DD01331034072BC9E90076CDE92634FC
:103FF000F2DD25AA5146404605F0AEFD00287FF4CB
:1040000064AC103D102DDDE926340DF1C809E8DC63
:1040100001332C44072BC9E90075CDE926347FF71D
:10402000C8ACDDE90B1025AA05F096FD00287FF449
:104030004CAC279CBDE41F99002940F370820F9F70
:10404000129B9F42A8BF1F46002F0BDD269B01330A
:104050003C44072BC9E900572794269300F3DD83DE
:1040600009F108090F9E002FA8BFF61B002E00F3D0
:1040700088811F9B129A934280F26F81139A149940
:104080001444C9E90012269A27940132072A26927D
:1040900000F3FE8209F10809129A0F99D31A561AF1
:1040A0009E42A8BF1E46002E0EDD269AC9F8046067
:1040B00001320D443444072AC9F80050279426924F
:1040C00000F3B78309F10809002EACBF9D1B1D4604
:1040D000002D7FF765AC102D269BAF4F7FF7A7AE65
:1040E000DDE90BA8102605E009F10809103D102DA7
:1040F0007FF79DAE01331034072BC9E90076CDE977
:104100002634F1DD25AA5146404605F025FD00285C
:104110007FF4DBABDDE926340DF1C809E6E7CDF825
:1041200028A032ADFFF79DBB069BD9073FF5A1AE96
:104130000123072ECDE92664C9F80050C9F80430E0
:104140007FF7C8AEDDE90B1025AA05F005FD0028B4
:104150007FF4BBABDDE926640DF1C808BAE6129B1B
:10416000012B7FF7B7AE112B8B4F40F37182DDF837
:1041700030A0102507E008F10808A9F11009B9F1ED
:10418000100F40F3658201361034072EC8E9007520
:10419000CDE92664EFDD0B9925AA504605F0DCFC3D
:1041A00000287FF492ABDDE926640DF1C808E4E74E
:1041B000DDE90B1025AA05F0CFFC00287FF485ABC4
:1041C000279C0DF1C809FFF7D8BBDDE90B1025AA24
:1041D00005F0C2FC00287FF478ABDDE926640DF120
:1041E000C80850E6DDE90B1025AA05F0B5FC00284B
:1041F0007FF46BABDDE926640DF1C80850E60D9342
:104200009BF80030FFF73DBA32ADFFF72ABB17F03D
:1042100040021CBF0A469BB20121FFF7F2BADDE95A
:10422000100102460B460DF037FC002840F06D836C
:10423000BAF1FF3F28F0200600F00A83472E04D190
:10424000BAF1000F08BF4FF0010ADDE9101247F480
:104250008070002A0690C0F2358200230E93DDE9BB
:104260001034CDE91A34B8F1650F00F0008300F383
:104270003082B8F1450F00F0FA8223AB049320ABF3
:1042800003931FAB0293022300930C98CDF804A074
:10429000DDE91A2302F072FCF907054640F1B1800E
:1042A00000EB0A04DDE91A0100220023FCF7DEF925
:1042B000002840F03082239BA34206D230215A1CB2
:1042C00023921970239B9C42F9D81F9A0F925B1B73
:1042D000472E129300F09A80B8F1660F40F09C8050
:1042E0000F9A07F00103002A43EA0A0340F36C82A5
:1042F000002B40F024830F9B07930A934FF066082E
:104300001FE2FC0678D4780676D50D9B099A1B68C7
:104310001A8079E4214B159317F0200200F0A88051
:104320000D9B073323F0070319465A6851F8083BE1
:104330000D91F90740F1998053EA020100F0958050
:1043400030218DF878108DF8798047F0020702212E
:10435000FFF757BA124B1593DEE7069AD0077FF5A1
:104360009BAE8BE60C98402102F0C4F80B9B1860C2
:104370001861002800F0C1820B9A40235361FFF7B7
:1043800050B9102E269B044F40F36F8122464FF008
:104390001008DDE90B4A0BE0281F0408302A040846
:1043A000182C040809F10809103E102E40F35C8116
:1043B00001331032072BC9E90078CDE92632F1DD4F
:1043C00025AA2146504605F0C7FB00287FF47DAAA8
:1043D000DDE926320DF1C809E6E72846FDF7B0FD14
:1043E00020EAE0730D940A909DF877400697B24654
:1043F00007930F96FFF73CBA0D9B099A1B681A604A
:1044000002E4239B1B1A12931F9B0F930F9BDA1C32
:1044100080F28581A8F102080F9B8DF88480591ED7
:1044200000291F91B6BFC3F101012B232D230929B8
:104430008DF8853000F39E81302330318DF8863041
:1044400004238DF887101693129A169B012A1344A1
:104450000A9340F316820A9B139A13440A9323EAA1
:10446000E373079300230F936BE10221FFF7C9B9B0
:104470000D9951F8043B0D9117F010017FF459AFDD
:1044800017F040021CBF9BB20A4652E7CDE90687EF
:10449000B44E32AD4FF0050E991841F10001A6FB64
:1044A000010727F0030000EB9700091A581A9846F5
:1044B000944662F100034FF0CC3202FB00F206FB9F
:1044C0000322A0FB063003F001070244A7FB0E07FE
:1044D0004018B8F10A0F4FEA530300F130007CF1A5
:1044E000000C43EAC27305F8010D4FEA5202D3D221
:1044F000DDE9068732AB5B1B06970A93FFF7B1B97C
:10450000DDE90B1025AA179305F026FB00287FF4A0
:10451000DCA9279C179B0DF1C809FFF7FDB9269B65
:10452000914AC9F80020013301340122072B279456
:104530002693C9F8042000F3B88009F1080900297E
:1045400052D1069B129A03F0010313433FF428AAA9
:10455000139B14991A19C9E90013269B279201335A
:10456000072B269300F3398109F108091299C9F83C
:10457000005001338C18072BCDE92634C9F80410FC
:104580007FF70CAA5EE4DDE90B1025AA05F0E4FA3A
:1045900000287FF49AA9279C0DF1C809FFF755BBA5
:1045A000DDE90B1025AA05F0D7FA00287FF48DA9C4
:1045B000279C0DF1C809FFF7DAB9DDE90B1025AA30
:1045C00005F0CAFA00287FF480A9279C0DF1C809DC
:1045D000FFF751BB5346062B28BF0623634D0A93B2
:1045E0000D940793FFF786B9139B14981A19C9E91C
:1045F0000003269B27920133072B269300F3ED80BF
:1046000009F108090029B1DA4E421031584F80F201
:104610004181DDE90BA8102405E009F10809103EED
:10462000102E40F3378101331032072BC9E9007493
:10463000CDE92632F1DD25AA5146404605F08CFA37
:1046400000287FF442A9DDE926320DF1C809E6E72A
:1046500001364C44072ECDE92664C8F80070C8F82E
:1046600004907FF735AC6DE5144601333444072BD5
:10467000CDE92634C9F80070C9F8046000F3BB80A6
:1046800009F10809F5E42D248DF87740FFF7CDB93D
:10469000DDE90B1025AA05F05FFA00287FF415A9C3
:1046A0001F9B279C0DF1C809F6E4DDE90B1025AA34
:1046B00005F052FA00287FF408A91F99279C0DF1F4
:1046C000C8093CE702F100431B932D231A910E9376
:1046D000C9E5B8F1660F7FF4D0ADCDF81CA0032377
:1046E000009323AB049320AB079C03931FAB01946F
:1046F00002930C98DDE91A2302F040FAB8F1660F34
:10470000054604447FF4CEAD2B78302B00F0E780D3
:104710001F9B1C44C6E51F9A0F922346D7E59A4576
:10472000FFF678AE129B0F9A934200F3CB80FE0700
:104730000F9B00F1FB8023EAE37207920A934FF08C
:1047400067080E9B002B62D02D238DF877304FF039
:10475000000AFFF78EB8DDE90B1025AA05F0FCF979
:10476000FFF7B3B8CDCCCCCC342C04082C2C0408E7
:10477000281F04080DF193048D4E23461846A6FB0E
:104780000123DB0803EB8302A1EB4202303200F885
:10479000012C0A46632A194600F1FF33EEDC303162
:1047A00003F8011C831EA34280F0FE800DF18502F8
:1047B00013F8011B02F8011FA342F9D142AB181AEA
:1047C000A0F1710316933FE6002B40F0D080012347
:1047D00007934FF066080A93B3E7DDE90B1025AAAB
:1047E00005F0BAF900287FF470A8DDE926321F9998
:1047F0000DF1C80906E7DDE90B1025AA05F0ACF9B3
:1048000000287FF462A8279C0DF1C80931E4DDF887
:1048100038A09DF87740FFF72BB8DDE90B1025AAEB
:1048200005F09AF900287FF450A8279C0DF1C809DB
:1048300018E4DDE90B1025AA05F08EF900287FF4B5
:1048400044A81F9B129A279CD31A0DF1C8093BE478
:104850004FF0060AF9E40D94CDF81CA0CDF828A07D
:104860009DF87740069782460F90FFF701B80AF14E
:1048700001030793022333E793464FF0000AFEF744
:1048800003BF17F001020F927FF4E5AD23EAE37353
:10489000079356E701333244072BCDE92632C9F896
:1048A0000070C9F804607FF75FAEDDE90B1025AA40
:1048B00005F052F900287FF408A8DDE926320DF151
:1048C000C80953E6DDE9123213440F9A0A93002A0D
:1048D00041DD23EAE37307934FF0670831E7DDE931
:1048E0001A0100220023FBF7C1FE00284BD01F9BBA
:1048F0000F931C44631B1293F2E40C9A0C23136075
:104900004FF0FF330993FEF7E5BF119B294D002BB4
:10491000B8BF2D2427F080030693A8BF9DF87740E9
:10492000254BB8BF8DF87740FFF784B8139A13442E
:104930000A9323EAE37307934FF0670801E7139B99
:104940000AEB030808EB02030A9323EAE3730793D5
:104950004FF06608F5E60F9B0A9AC3F101031A446B
:1049600022EAE2730A9207934FF06708E9E6139B85
:1049700003F1010808EB0A030A9323EAE3730793A0
:104980004FF06608DDE6079BC3F101031F931C444B
:1049900088E40D999BF8013051F804AB0D919346D2
:1049A0004AEAEA7AFEF76DBE022316934CE500BF91
:1049B000CDCCCCCC142C0408102C04080000000032
:1049C00002780B78012A28BF9A4240F0D8806DE91E
:1049D000044540EA0104CDE902676FF0000C4FEA9C
:1049E00044721AB380EA010414F0070F6BD100F08F
:1049F000070420F0070004F0030521F007014FEA47
:104A0000C505F0E8042314F0040FF1E804670CFA7C
:104A100005F462EA040266EA04060BD063EA0403C2
:104A2000624667EA0407664604E000BFF0E8042334
:104A3000F1E8046782FA4CF582EA0604A4FA8CF4E1
:104A40006CBB83FA4CF583EA0705A5FA8CF595B99A
:104A500050E9022351E9026782FA4CF582EA060422
:104A6000A4FA8CF483FA4CF583EA0705A5FA8CF5D1
:104A70002543DBD09CB92DBAB5FA85F424F00704A0
:104A800027FA04F1DDE9026723FA04F303F0FF00DB
:104A900001F0FF01FDE80445A0EB0100704724BAD6
:104AA000B4FA84F424F0070426FA04F1DDE902677D
:104AB00022FA04F202F0FF0001F0FF01FDE80445D4
:104AC000A0EB0100704714F0030F3CD110F0030479
:104AD00028D150F8082B51F8083B82FA4CF582EAAD
:104AE0000305A5FA8CF55DB950F8042C51F8043C87
:104AF00082FA4CF582EA0305A5FA8CF5002DE8D080
:104B00002DBAB5FA85F424F0070423FA04F122FA49
:104B100004F202F0FF0001F0FF01FDE80445A0EB04
:104B2000010070474FEAC40420F0030050F8082B3E
:104B300021F0030151F8083B0CFA04F462EA040284
:104B400063EA0403C9E710F003041DD0A1EB0401DC
:104B500020F00300E40750F8042B06D012D28B7823
:104B60005FFAA2F4E41A06D12BB1CB785FFAB2F463
:104B7000E41A00D133B920465DF8104B7047A2EB20
:104B80000300704701F1040150F8042BCC0721F019
:104B9000030151F8043B48D824D222F07F4482FA22
:104BA0004CF594EA1325A5FA8CF50AD165B951F8AC
:104BB000043B84EA0204B4EB036F0ED150F8042BDB
:104BC000EBE74FEA132355E035F07F454DD10878E8
:104BD000FDE80445C0F1000070474FEA126203F09F
:104BE000FF0347E002EA1C4482FA4CF594EA1345BD
:104BF000A5FA8CF50AD165B951F8043B84EA0204A0
:104C0000B4EB034F0CD150F8042BEBE74FEA1343FE
:104C100030E015EA1C4528D10B884FEA124229E002
:104C20004FEA124203EA1C4324E002F0FF0482FA36
:104C30004CF594EA1365A5FA8CF50AD165B951F8DB
:104C4000043B84EA0204B4EB032F09D150F8042B8F
:104C5000EBE74FEA13630DE015F0FF0F05D10B688A
:104C60004FEA122223F07F4304E04FF00000FDE8FA
:104C70000445704712BA1BBA82FA4CF482EA030464
:104C8000A4FA8CF5B5FA85F402FA04F203FA04F3F7
:104C90004FEA1260FDE80445A0EB1360704700BFC7
:104CA0002DE9F0410469B4EB611F05DC00230361C9
:104CB00000234361BDE8F08100F114054E1111F0AD
:104CC0001F0C05EB840E05EB860321D055F826104A
:104CD00004339E4521FA0CF1CCF120082DD92F4642
:104CE0001A6802FA08F20A4347F8042B53F8041B27
:104CF0009E4521FA0CF1F3D8A31B9B00053B9B08B2
:104D0000013305EB830445F8231079B104340DE039
:104D10009E4588BF00F11002C8D953F8041B42F821
:104D2000041F9E45F9D8A41B05EB8404631B9B104C
:104D3000AC420361BCD0BDE8F08141610029B5D02F
:104D40002C46E3E72DE9F04F0F6885B0CDE9002050
:104D5000BA780393302A894640F0EB81FB1C1A781D
:104D6000302A1C4603F10103F9D0E71B023FDFF8AC
:104D7000B88218F80230002B00F0EE80237818F883
:104D800003304FF0000A5546002B00F07081264694
:104D900016F8013F18F80330002BF9D1A34901227E
:104DA000304600F09BFB834600284CD03278002D23
:104DB00000F0A081AB1B4FEA830B02F0DF02502A08
:104DC00035464CD0C9F80060BAF1000F74D12A1BE7
:104DD000013A072A514604DD5210072A01F1010168
:104DE000FADC019807F02AFC8246002800F05E8277
:104DF00000F11406A542029666D90027B9460DE0D7
:104E0000202F1AD03A4604372B7818F8033003F0D5
:104E10000F03934049EA0309A54258D015F8013D14
:104E20002E2BEDD1A542EBD380490122284600F07C
:104E300055FB0028F0D0202FE4D1002246F8049B37
:104E400004279146E0E7002D00F06481327802F0FB
:104E5000DF02AB1B502A4FEA830B3546B2D16A788A
:104E60002B2A00F045812D2A40F0D2800120AA781B
:104E700018F802104A1E182A05F1020600F2D28024
:104E8000727818F80220103901365AB90CE001EB9B
:104E9000810116F8013F02EB4102A2F1100118F85E
:104EA00003200AB1192AF2DD00B149428B44C9F846
:104EB0000060BAF1000F8AD0002F0CBF0625002534
:104EC000284605B0BDE8F08F029E4FF0000946F875
:104ED000049B029BF61AB610CAF81060484607F009
:104EE00087FC009B76011C68361AA64273DCC0F270
:104EF00003810027009B9A685A45C0F23A81009BC3
:104F00005A685A454ADDA2EB0B0B5C4500F39080D2
:104F1000DB68022B00F0DC80032B00F04981012BC1
:104F200040F0DA805C4540F0D780012C08D0611E4B
:104F3000504608F09DF8002800F0CE80009B5A688B
:104F400003990A60029A0123CAF8103013600E9B7D
:104F50006225C3F800A0B3E734490122204600F0DF
:104F6000BDFA8246002840F08480637818F8032058
:104F7000651C002A7FD0302B2C4640F0248114F889
:104F8000013F302BFBD018F80330B3FA83FA012726
:104F90004FEA5A1A002B7FF4FAAE68E0012587B178
:104FA000009BDA68022A6ED0032A70D0012A06D14B
:104FB000B90704D5029B1A681743FA076AD445F06B
:104FC00010050E9BC3F800A0039B2846C3F800B051
:104FD00005B0BDE8F08F361B3146504608F048F862
:104FE000074678B1711E4A11029B012753F822002F
:104FF00001F01F0207FA02F2024203D0B94200F3A5
:10500000C980022731465046FFF74AFEB34471E794
:1050100018F802104A1E182A05F101064FF0000088
:105020007FF62EAF2E46CDE6381F0408EC2B040881
:105030000BF1FF36002F40F0A580002E40F0A48039
:105040007311029A06F01F0652F823200123B34081
:1050500013425946504618BF47F00207FFF720FE9B
:10506000009BA4EB0B040225D3F804B097E7264677
:1050700094E62378254603F0DF03502B00F093805D
:10508000C9F8005018E70F9BC3F101030F930F9B62
:10509000002B94D0DAF81070029A4FEA87099046F4
:1050A00002EB8706002003E0964242F8040C43D945
:1050B000944652F8041B4B1CF6D00131022DCCF85B
:1050C000001079D014F01F0440F0A580212578E766
:1050D0000F9B002B3FF434AF0198514607F0D4FAF0
:1050E00050250E9A00232846136005B0BDE8F08FC6
:1050F0000020BCE6AB4660E6A61B5146019832464E
:1051000007F006FD00F11403ABEB060B8246029399
:105110000027EFE6727818F80210751C2E46002959
:105120003FF44BAE16F8012F18F80230002BF9D1DE
:1051300040E6BC1C00271AE6DAF80820974244DA59
:105140000AEB87017A1C0120022DCAF81020DDF835
:105150000880486130D0002A6ADC0022CAF810209A
:105160000022CAF81420009B9A680BF1010B5A45E3
:10517000ACDA0198514607F087FA0E9A0023A3256E
:1051800013609DE601275BE73146504607F070FF4C
:10519000074655E7B11E504607F06AFF00283FF466
:1051A00030AF03272EE74FF0000B4FF0010A56E611
:1051B0000F9B002B90D0C3E6009B1A68013AA242D5
:1051C00060D02225FDE60127E1E5DAF80410019818
:1051D000013107F033FA064600286DD0DAF81020C6
:1051E000023292000AF10C010C3003F0E1FE51464C
:1051F000019807F049FA3269012006EB8201022D7D
:105200000244326106F114084861B246D4D0974294
:10521000BFF658AF9FE7C144C4F1200459F8040C0D
:1052200007F0E6FAA042BFF651AFDAF8102092E795
:1052300008EB82040AF11800DAF8142084424FEADD
:1052400052022BD94546036842EAC37245F8042B43
:1052500050F8042B84424FEA5202F4D8A4EB0A011E
:1052600019398908013148F8212008EB810102B180
:105270000431A1EB080292104145CAF810207FF4D6
:1052800072AF6DE7621104F01F0458F8221001227A
:10529000A2400A4214BF2125222592E6C8F8002028
:1052A0000AB14146E4E7CAF8102059E7054B064821
:1052B0005246E42107F0D0F8024B034832468421DD
:1052C00007F0CAF8382C04084C2C0408FE2806D82D
:1052D000034B1B5C03F00303012B08BF2030704716
:1052E0005921040807F090B82DE9F04707464948CE
:1052F0000E46354616F801EB10F80EC01CF0080CEF
:10530000F7D1BEF12D0F5AD0BEF12B0F03BF96F887
:1053100000E06446AE1C64464BB9BEF1300F5CD071
:105320000A23DFF8F4804FF0050A99460AE0102BB3
:105330004AD04FF0FF38B8FBF3F803FB08FA6FEAE6
:105340000A0A99460025284605E02CD009FB00C032
:10535000012516F801EBAEF1300CBCF1090F06D9AE
:10536000AEF1410CBCF1190F0BD8AEF1370C63450F
:1053700010DDB5F1FF3FECD04045E6D94FF0FF35E9
:10538000E7E7AEF1610CBCF1190F03D8AEF1570C91
:105390006345EEDC6B1C0BD004B140420AB165B929
:1053A0001160BDE8F087D445D0DD4FF0FF35D0E780
:1053B00022233B602846002AF3D0711EF0E796F8BE
:1053C00000E00124AE1CA7E7BEF1300F11D04FF072
:1053D0000F0A6FF070489946B4E7337803F0DF03A3
:1053E000582B0BD008234FF0070A6FF060489946FE
:1053F000A8E7307800F0DF005828E8D14FF0100916
:1054000096F801E04FF00F0A02366FF070484B46F5
:1054100098E700BF592104089999991964E700BFDA
:1054200010B4044C84461346206810BC0A466146FA
:105430005AE700BF7001002010B4044C84461346A4
:10544000206810BC0A4661464EE700BF700100208C
:1054500010B4034CD4F8E440A44610BC604700BF2D
:105460000400002082B049B15AB16BB113780B60CF
:105470001278101E18BF012002B0704701A9002A3F
:10548000F3D1104602B070476FF00100F4E700BF9F
:1054900001390B291FD8DFE801F0080A0C0E1012A1
:1054A0001416181A1C0600F09FB803F0B7BF06F0D8
:1054B0001FBB01F003B804F07FBB03F077BF07F018
:1054C00003BE00F0FFBF04F073BB07F039BF03F069
:1054D000F9BE07F0AFB80020704700BF002A3ED0E9
:1054E00030B584460446084380070B462ED1032A74
:1054F00007D82BE0043A25D01EF0803F22D1032AA2
:1055000022D92068194653F8045BA0F1013EA84255
:10551000A4462EEA000E04F10404EBD09CF800002F
:105520000C7884421DD1E64668B11EF8010F11F8CF
:10553000014FA2EB0E03A04203F1FF3311D11CEB8C
:105540000303F1D1002030BDA44619469CF80000A9
:105550000C78A04205D1012AF4D0E646E4E71046D3
:105560007047001B30BD00BFFFF72ABA70B50B4D66
:1055700084B0D5F8E05004461E4621B1A847431C2C
:1055800006D004B070BD0A4601A9A847431CF8D153
:1055900000228A233260236004B070BD0400002022
:1055A00070B50F4B0F4CD3F8E06025680B4684B004
:1055B0001446014638B11A4628462346B047431CD4
:1055C00008D004B070BD134601A902462846B04772
:1055D000431CF6D100228A2322602B6004B070BDE8
:1055E0000400002070010020A0F13003092B07D92E
:1055F00020F02000413805288CBF00200120704792
:105600000120704788420ED98B1883420BD900EBDA
:10561000020C002A6ED0624613F801CD02F801CDCB
:105620009942F9D170470F2A0FD8034602F1FF3C87
:10563000002A5FD00CF1010C013B8C4411F8012BC6
:1056400003F8012F6145F9D1704740EA01039B0738
:1056500051D1A2F1100370B501F1200C23F00F0518
:1056600001F1100E00F11004AC441B095EF8105C4F
:1056700044F8105C5EF80C5C44F80C5C5EF8085C66
:1056800044F8085C5EF8045C44F8045C0EF1100E0B
:10569000E64504F11004E9D1013312F00C0F01EBDF
:1056A000031102F00F0400EB031328D0043C24F094
:1056B00003064FEA940C1E441C1F8E465EF8045BE2
:1056C00044F8045FB442F9D10CF1010402F0030282
:1056D00003EB840301EB840102F1FF3C4AB10CF1BE
:1056E000010C013B8C4411F8012B03F8012F61459B
:1056F000F9D170BD704702F1FF3C03469AE722469C
:10570000EAE700BF9200FFF77DBF00BF014B1868BA
:10571000704700BF700100204269002A40F26C739C
:10572000A8BF6FF063031344920710B407D1254C50
:10573000254A264904FB0322B1EBB20F2ED3224A9D
:10574000204C234904FB0323B1EB331F2CBF012260
:105750000022D0E906315B0003EB0113134441F250
:10576000A262934229D00ADC012B19DD0A3B172BD8
:1057700025D81848D84040F3000010BC704741F2CB
:10578000B462934211DDA3F5B653023B152B16D834
:10579000114810BCD84000F0010070470122D8E742
:1057A000DB43DB0F584210BC704741F2B1608342CB
:1057B000D4BF0020012010BC70470120DDE700208D
:1057C000DBE700BF295C8FC250B81E05285C8F0242
:1057D0000AD7A300CF00CC001F002A002DE9F04F0C
:1057E000144612788FB083460E4642B9154616B15C
:1057F00000230BF8053028460FB0BDE8F08F9A461D
:10580000252A4FF0000302931D460CD0731EAB42B5
:1058100040F28F800BF80520013401352278002AF0
:10582000E5D0252AF2D16778302F6CD02B2F6AD0A3
:105830003946A1F13103082B04F101044FF00007B0
:1058400068D945294FF000086ED04F296CD0A1F1DE
:105850002502552A6DD8DFE812F0B3016C006C0008
:105860006C006C006C006C006C006C006C006C00D8
:105870006C006C006C006C006C006C006C006C00C8
:105880006C006C006C006C006C006C006C006C00B8
:105890006C00B502D702190246026C006A027F0250
:1058A000710088006C006C006C00BC016C006C0026
:1058B0009F006C005A0470042F04410467037703AF
:1058C0008903FF0390036C006C006C006C006C009B
:1058D0006C00DD03D800BF01FA00FA006C00F90289
:1058E000D8006C00A90171008800AE01C6016C00EF
:1058F0009F00CF010201180147045004D901F601AD
:10590000280461041C03A178A1F13103082B04F1E0
:10591000020496D806A920460A22FFF78DFD069CB0
:1059200021784529804690D1617801348FE704F0D1
:10593000E9F8002528460FB0BDE8F08FC74BC84AEC
:105940006B2908BF1A46DAF80830711B0BEB05000B
:1059500008F060F80028ECDB0544AE42E9D9237872
:10596000002B3FF444AF013458E7DAF80830002B3D
:1059700000F026840C2B09D0BA4880FB0320DA17EC
:10598000C2EB600202EB4202A3EB8203B348B44ACB
:10599000492918BF0246D8E7DAF808300B2BB24B7A
:1059A000D4BF0022012203EB8203D3F8A480404637
:1059B000FCF7C6FA0028D2D0731E9D42B9D208F176
:1059C000FF330BEB060CDFF8A4921F180CF1FF3C21
:1059D0000BEB050201E09445ABD0207850289E46A1
:1059E00013F8011F07D119F8010000F00300012886
:1059F00004BF2031C9B29F4202F8011BEBD10EF166
:105A00000203A3EB08031D44A9E7974BDAF8102023
:105A100053F822703846FCF793FA00289FD0731E83
:105A2000AB4286D95D44411906EB0B007B1E013861
:105A300002E0A8423FF47DAF13F8012F2A702A46F6
:105A40000135A942F5D1CBF10105154487E7844B17
:105A5000824A642908BF1A46DAF80C3075E7824B8F
:105A6000D3F8E4703846FCF76BFA3B78002B3FF430
:105A700076AF3A465346711B0BEB0500FFF7AEFEBF
:105A800000287FF756AF054469E7DAF82030002B8D
:105A900080F29E834FF0000CCDF810C0DAF814802D
:105AA000B8F145034FEAE87262F10002002AA6EB62
:105AB00005010BEB050002DA033342F100029B08FB
:105AC00043EA8273DFF8A8E19210059208F1FF37EC
:105AD00008F22B12A8F14608CDF80C808EFB07982F
:105AE000FF17C7EB68178EFB028ED217C2EBEE12C0
:105AF000B3EB070E059BDDF80C8063EBE7731EEB41
:105B0000020743EBE27340F26D1202FB08FE17EB53
